:020000040800F2
:1000000010B5054C237833B9044B13B10448AFF352
:1000100000800123237010BD0400002400000000B4
:100020001001000808B5034B1BB103490348AFF3A7
:10003000008008BD00000000080000241001000836
:10004000002301461A46184600F018B838B5074D87
:10005000074C2C1BA41005D0013C55F8043D9847D3
:10006000002CF9D1BDE8384000F058B83401000840
:1000700030010008704700BF704700BF2DE9F8430A
:100080001B4D0646286898460F469146FFF7F2FF3B
:10009000184B1C681CB3286865681F2D22DC4EB9FC
:1000A0006B1C0235636044F82570FFF7E5FF002004
:1000B000BDE8F88304EB85010123C1F88890D4F8EA
:1000C0008821AB401A43022EC4F88821C1F8088168
:1000D000E6D1D4F88C211A43C4F88C21E0E7064C11
:1000E0001C60D8E7FFF7C8FF4FF0FF30E0E700BF24
:1000F00000000024B401002424000024024B13B1AA
:100100000248FFF79DBF7047000000004D00000847
:10011000F8B500BFF8BC08BC9E467047F8B500BFF4
:08012000F8BC08BC9E467047C4
:08012800FD000008250000089D
:0401300001000008C2
:040134002000002483
:0400000508000000EF
:00000001FF
